:020000040800F2
:100000003807002029020008C5040008630400081E
:10001000C1040008D10200085709000800000000D0
:10002000000000000000000000000000990500082A
:10003000D50200080000000055050008B1060008C0
:10004000690900084302000843020008430200084F
:100050004302000843020008D902000843020008D6
:10006000FD02000831030008650300084302000890
:10007000430200084302000843020008430200084C
:10008000430200084302000843020008430200083C
:10009000430200084302000843020008430200082C
:1000A000430200084302000843020008430200081C
:1000B000430200081D07000843020008430200082D
:1000C00043020008430200084302000843020008FC
:1000D00043020008710800084302000843020008B8
:1000E00043020008430200084302000843020008DC
:1000F00043020008430200084302000843020008CC
:1001000043020008430200084302000843020008BB
:1001100043020008430200084302000843020008AB
:10012000430200084302000843020008430200089B
:10013000430200084302000843020008430200088B
:10014000430200084302000843020008430200087B
:10015000430200084302000843020008430200086B
:10016000430200084302000843020008430200085B
:10017000430200084302000843020008430200084B
:10018000430200084302000800F002F800F03CF8C7
:100190000AA090E8000C82448344AAF10107DA45E2
:1001A00001D100F031F8AFF2090EBAE80F0013F0F8
:1001B000010F18BFFB1A43F001031847F4080000B1
:1001C00014090000103A24BF78C878C1FAD8520741
:1001D00024BF30C830C144BF04680C6070470000C1
:1001E0000023002400250026103A28BF78C1FBD840
:1001F000520728BF30C148BF0B6070471FB500F0E1
:1002000051FC1FBD10B510BD00F033F81146FFF7CB
:10021000F5FF00F029FC00F051F803B4FFF7F2FFFE
:1002200003BC00F0BDFB00000948804709480047B7
:10023000FEE7FEE7FEE7FEE7FEE7FEE7FEE7FEE796
:10024000FEE7FEE704480549054A064B70470000F3
:10025000B506000889010008380100203807002091
:1002600038030020380300207047704770477047FC
:100270007047754600F028F8AE46050069465346BB
:1002800020F00700854618B020B5FFF7DBFFBDE87A
:1002900020404FF000064FF000074FF000084FF0ED
:1002A000000B21F00701AC46ACE8C009ACE8C0097E
:1002B000ACE8C009ACE8C0098D4670470446AFF30E
:1002C00000802046FFF7A9FF00487047D4000020B7
:1002D00000BFFEE77047000010B50A2000F082FB67
:1002E0000121054800F0B2F8012801D100F0BBF867
:1002F000012000F05DF810BD0000024010B50A209A
:1003000000F070FB0421084800F0A0F838B9074855
:10031000006808B9012000E00020044908600420BA
:1003200000F046F810BD000000100240A4824242D6
:1003300010B50A2000F056FB0821084800F086F8A6
:1003400038B90748006808B9012000E000200449D6
:100350000860082000F02CF810BD000000100240DA
:10036000A882424210B50A2000F03CFB10210D4843
:1003700000F06CF888B90C48006808B9012000E06A
:100380000020094908600948D0F8A80208B90120EE
:1003900000E000200449091D0860102000F008F862
:1003A00010BD000000100240A48242420080424280
:1003B0000149086070470000143C0140F0B50A464E
:1003C00000210023002400BF3DE0012505FA01F3D0
:1003D000156805EA03049C4234D105684F000326E2
:1003E000BE40B543056015794E00B54006683543FB
:1003F00005601579012D02D01579022D16D1856879
:100400004F000326BE40B543856055794E00B54088
:10041000866835438560456801268E40B543456052
:10042000456896798E40B6B235434560C5684F0041
:100430000326BE40B543C560D5794E00B540C668B9
:100440003543C560491C1029BFD3F0BD02460020CA
:1004500013690B400BB1012000E0002070470183BD
:10046000704700BFFEE710B500F002F810BD0000B5
:100470004AF6AA2001490860704700000030004099
:100480001CB50121202000F067F84FF4C0600090F7
:1004900001208DF8040000208DF8060001208DF861
:1004A000070003208DF8050069460448FFF786FF22
:1004B0004FF4C0610148FFF7D2FF1CBD0014024099
:1004C00000BFFEE77047000070B5002100230F2237
:1004D000C4781CB3174C246804F4E064C4F5E064E9
:1004E000C4F30721C1F10404E3B20A4144789C40FB
:1004F000E1B28478144021430C07210E0E4C05789C
:100500006155047804F01F050124AC4005786D1195
:10051000AD0005F1E025C5F8004109E0047804F0DC
:100520001F050124AC40054D0678761145F826409C
:1005300070BD00000CED00E000E400E080E100E0B0
:1005400002490143024A1160704700000000FA05A9
:100550000CED00E07047000029B1064A1268024322
:10056000044B1A6004E0034A12688243014B1A608C
:10057000704700003038024029B1064A1268024331
:10058000044B1A6004E0034A12688243014B1A606C
:100590007047000040380240704700000CB5002052
:1005A000019000903448006840F48030324908607F
:1005B00000BF3148006800F4003000900198401CF2
:1005C0000190009818B90198B0F5A04FF1D12A48D0
:1005D000006800F4003010B10120009001E000201C
:1005E00000900098012846D123484030006840F030
:1005F00080502149403108602048006840F4404064
:100600001E4908601C48083000681B490831086012
:100610000846006840F4004008600846006840F45E
:10062000A05008601648091F0860081F006840F0C5
:100630008070091F086000BF0F48006800F000705C
:100640000028F9D040F205700E4908600A480830C9
:10065000006820F003000849083108600846006877
:1006600040F00200086000BF03480830006800F056
:100670000C000828F8D10CBD003802400070004082
:1006800008544007003C0240042808D14FF0E02104
:10069000096941F004014FF0E022116107E04FF0D9
:1006A000E021096921F004014FF0E0221161704757
:1006B0007047000010B51548006840F470001349F9
:1006C00008601348006840F00100114908600020EC
:1006D0000F49083108600E4800680E4908400C496F
:1006E00008600D48091D0860081F006820F480207C
:1006F000091F0860002006490C310860FFF74EFF13
:100700004FF0006001498039086010BD88ED00E0BD
:1007100000380240FFFFF6FE1030002410B5012122
:10072000084800F050F8012807D10748006808B9C8
:10073000012000E00020044908600121014800F088
:1007400033F810BD00040040A88242427FB5054640
:100750000C4601210220FFF70FFF0020ADF80C002E
:10076000ADF806000295ADF8044001A90D4800F06F
:100770003DF8012211460B4800F02EF81D208DF89F
:10078000000001208DF8010003208DF802000120F7
:100790008DF803006846FFF797FE0121014800F03D
:1007A00006F87FBD00040040CA430282704721B1B1
:1007B000028842F00102028004E002884FF6FE73D4
:1007C0001A400280704702460020138A0B400BB18A
:1007D000012000E0002070471AB183890B43838118
:1007E00002E083898B4383817047000000220288E6
:1007F000184B98420ED0184B98420BD0B0F1804F56
:1008000008D0164B984205D0154B984202D0154B94
:10081000984204D14FF68F731A404B881A43124BFB
:10082000984207D0114B984204D04FF6FF431A402C
:100830000B891A4302804B68C3620B880385054B02
:10084000984202D0044B984201D18B7A038601234F
:100850008382704700000140000401400004004012
:1008600000080040000C0040001000400014004050
:1008700010B540F225511D4800F03EF810B31B485A
:1008800000F064F8C4B21A48008800F40040C8B907
:100890001748008800F4804060B10A2C03D0002083
:1008A0001349088020E01248008840F400401049B5
:1008B000088019E00D2C06D10D48008840F48040D6
:1008C0000B49088010E00A480088C0F30D00094970
:1008D0000C5407480088401C0549088008460088D9
:1008E000C72801DD0020088010BD00000010014075
:1008F000080000200C00002070B5024600240023F0
:100900000025002040F66A16B14200D100BFC1F3B5
:10091000421501F01F03012606FA03F3012D02D14F
:100920009689334006E0022D02D1168A334001E059
:10093000968A33400C12012606FA04F416883440D5
:1009400013B10CB1012000E0002070BD0146888881
:10095000C0F30800704700BFFEE700000020014917
:1009600008607047082C004010B50748007800F078
:100970000FF8FFF7F3FF0548006808B9012000E011
:1009800000200249086010BD0A000020A8824242EF
:1009900000F07F01014A116070470000002C004008
:1009A000014600BF7047000010B504466FF0040018
:1009B000FFF76AFEE11704EB5171C1F3C701074A63
:1009C00011701046007800EB4001C1EBC0104FF6EB
:1009D000FF7101EAC0000249088010BD000000203C
:1009E0000200002070B504464FF4077094FBF0F04D
:1009F000C6B24FF4077094FBF0F100FB114085B2D2
:100A000005E04FF4077000F009F8701EC6B2002E22
:100A1000F7D115B1284600F001F870BD0146114A22
:100A200012884A434FF0E0235A6100229A611A4625
:100A3000126942F001021A6100BF4FF0E022106912
:100A400000F001021AB100F48032002AF5D04FF014
:100A5000E022126922F001024FF0E0231A61002225
:100A60009A617047020000204FF4A060FFF768FD14
:100A7000A820FFF799FFFFF703FD42F2CF0141F2F3
:100A80008730FFF763FE0AE00548006808B90120D7
:100A900000E0002002490860C820FFF7A3FFF3E749
:100AA000A48242424FF04070E1EE100A704700000D
:100AB000D00A0008000000200C000000C40100085B
:100AC000DC0A00080C0000202C070000E0010008F0
:0C0AD000000000000000000000007F009B
:040000050800018965
:00000001FF
