:020000040800F2
:100000004807002029020008A1070008F706000899
:100010009D070008B10300085F0D00080000000004
:100020000000000000000000000000007D09000842
:10003000B50300080000000031080008D50A0008D8
:100040008D0D000843020008430200084302000827
:100050004302000843020008B903000843020008F5
:10006000DD030008110400084504000843020008ED
:10007000430200084302000843020008430200084C
:10008000430200084302000843020008430200083C
:10009000430200084302000843020008430200082C
:1000A000430200084302000843020008430200081C
:1000B000430200084302000843020008430200080C
:1000C00043020008430200084302000843020008FC
:1000D00043020008410B00084302000843020008E5
:1000E00043020008430200084302000843020008DC
:1000F00043020008430200084302000843020008CC
:1001000043020008430200084302000843020008BB
:1001100043020008430200084302000843020008AB
:10012000430200084302000843020008430200089B
:10013000430200084302000843020008430200088B
:10014000430200084302000843020008430200087B
:10015000430200084302000843020008430200086B
:10016000430200084302000843020008430200085B
:10017000430200084302000843020008430200084B
:10018000430200084302000800F002F800F03CF8C7
:100190000AA090E8000C82448344AAF10107DA45E2
:1001A00001D100F031F8AFF2090EBAE80F0013F0F8
:1001B000010F18BFFB1A43F001031847B00E0000EF
:1001C000D00E0000103A24BF78C878C1FAD8520780
:1001D00024BF30C830C144BF04680C6070470000C1
:1001E0000023002400250026103A28BF78C1FBD840
:1001F000520728BF30C148BF0B6070471FB500F0E1
:100200002FFF1FBD10B510BD00F06EF81146FFF7AF
:10021000F5FF00F093FE00F0A0F803B4FFF7F2FF43
:1002200003BC00F019FE0000094880470948004758
:10023000FEE7FEE7FEE7FEE7FEE7FEE7FEE7FEE796
:10024000FEE7FEE704480549054A064B70470000F3
:10025000D90A000889010008480100204807002049
:100260004803002048030020704700000FB40449F1
:1002700010B503AA029800F009F810BC5DF814FB51
:10028000140000207047704770477047074B70B5E7
:100290000D467B4400F011F80446284600F020F893
:1002A00010B14FF0FF3070BD204670BD8B0C0000C8
:1002B00001694A1C02610878704700B58FB0CDE92A
:1002C00001310021059105497944CDE9031011461A
:1002D000684600F02EF80FB000BD0000E5FFFFFFFC
:1002E000007B00F080007047754600F03DF8AE4698
:1002F00005006946534620F00700854618B020B532
:10030000FFF7A0FFBDE820404FF000064FF00007C8
:100310004FF000084FF0000B21F00701AC46ACE8AD
:10032000C009ACE8C009ACE8C009ACE8C0098D461A
:1003300070472DE9F04106460024D6E90170F568C2
:100340008046304603E04146B847641C3046A84723
:100350000028F8D12046BDE8F0810446AFF30080C4
:100360002046FFF75AFF000000487047E4000020D5
:100370001CB50121202000F05DFA4FF48070009040
:1003800001208DF8040000208DF8060002208DF871
:10039000070003208DF805006946044800F033F992
:1003A0004FF48071014800F0A2F91CBD0014024016
:1003B00000BFFEE77047000010B50A2000F06EFD98
:1003C0000121054800F08AF9012801D100F095F9D2
:1003D000012000F05DF810BD0000024010B50A20B9
:1003E00000F05CFD0421084800F078F938B90748AE
:1003F000006808B9012000E00020044908600420DA
:1004000000F046F810BD000000100240A4824242F5
:1004100010B50A2000F042FD0821084800F05EF9FE
:1004200038B90748006808B9012000E000200449F5
:100430000860082000F02CF810BD000000100240F9
:10044000A882424210B50A2000F028FD10210D4874
:1004500000F044F988B90C48006808B9012000E0B0
:100460000020094908600948D0F8A80208B901200D
:1004700000E000200449091D0860102000F008F881
:1004800010BD000000100240A4824242008042429F
:100490000149086070470000143C014000212349D5
:1004A0008279002A3AD00A46126803689A430B46BA
:1004B0001A600A1D126803689A430B1D1A600279BC
:1004C00011440A6803681A430A60184A083212681D
:1004D00003689A43154B08331A601A1D12680368A3
:1004E0009A43124B0C331A604279102A0ED11A1F0C
:1004F000126803681A430D4B08331A601A1D1268FC
:1005000003681A43094B0C331A600DE0074942791E
:1005100011440A6803681A430A6005E0027911442D
:100520000A6803689A430A6070470000003C014073
:100530000EB500F0EFF80121880300F09BF90021CF
:10054000084600F01DFA0221042000F019FA0321E8
:10055000042000F015FA0421084600F011FA0120E9
:1005600001908DF80A0000208DF8080008208DF811
:10057000090001A8FFF792FF1C20019001208DF8CF
:100580000A0000208DF808000C208DF8090001A851
:10059000FFF784FF06208DF8000003208DF801008E
:1005A0008DF8020001208DF80300684600F0FAF88B
:1005B00008208DF8000003208DF801008DF802005E
:1005C00001208DF80300684600F0ECF809208DF852
:1005D000000003208DF801008DF8020001208DF845
:1005E0000300684600F0DEF80A208DF800000320C2
:1005F0008DF801008DF8020001208DF80300684697
:1006000000F0D0F80EBDF0B50A460021002300240A
:1006100000BF3DE0012505FA01F3156805EA030472
:100620009C4234D105684F000326BE40B5430560A7
:1006300015794E00B5400668354305601579012DE2
:1006400002D01579022D16D185684F000326BE40D1
:10065000B543856055794E00B54086683543856061
:10066000456801268E40B5434560456896798E40C1
:10067000B6B235434560C5684F000326BE40B5435A
:10068000C560D5794E00B540C6683543C560491C84
:100690001029BFD3F0BDF0B5002300244D07ED0EA7
:1006A00002FA05F3CE1000F1200555F826504E074A
:1006B000F70E0F26BE40B543CF1000F1200646F8D6
:1006C0002750CE1000F1200555F8265045EA0304C6
:1006D000CE1000F1200545F82640F0BD024600206E
:1006E00013690B400BB1012000E0002070474183EB
:1006F00070470183704700BFFEE710B500F002F8B5
:1007000010BD00004AF6AA200149086070470000A9
:10071000003000401CB50121112000F08BF81C2096
:10072000009000208DF804008DF8060001208DF85F
:10073000070003208DF8050069460648FFF763FFB0
:100740000120009002208DF8070069460248FFF75B
:100750005AFF1CBD00100240000002401CB50121E0
:10076000202000F067F84FF4C060009001208DF861
:10077000040000208DF8060001208DF807000320FA
:100780008DF8050069460448FFF73DFF4FF4C0614E
:100790000148FFF7AEFF1CBD0014024000BFFEE79A
:1007A0007047000070B5002100230F22C4781CB3ED
:1007B000174C246804F4E064C4F5E064C4F3072132
:1007C000C1F10404E3B20A4144789C40E1B2847868
:1007D000144021430C07210E0E4C05786155047816
:1007E00004F01F050124AC4005786D11AD0005F142
:1007F000E025C5F8004109E0047804F01F05012454
:10080000AC40054D0678761145F8264070BD0000D5
:100810000CED00E000E400E080E100E0024901436B
:10082000024A1160704700000000FA050CED00E07C
:100830007047000029B1064A12680243044B1A604F
:1008400004E0034A12688243014B1A6070470000BB
:100850003038024029B1064A12680243044B1A603C
:1008600004E0034A12688243014B1A60704700009B
:100870004038024029B1064A12680243044B1A600C
:1008800004E0034A12688243014B1A60704700007B
:1008900044380240F0B50021002200240225002641
:1008A0000223324F3F6807F00C0121B1042905D023
:1008B000082937D105E02E4F076036E02D4F07603D
:1008C00033E02A4F3F1F3F68C7F38056274F3F1F33
:1008D0003F6807F03F036EB1264FB7FBF3F7DFF831
:1008E0008CC0ACF1040CDCF800C0CCF3881C07FB16
:1008F0000CF40CE01E4FB7FBF3F7DFF870C0ACF15F
:10090000040CDCF800C0CCF3881C07FB0CF4174F78
:100910003F1F3F68C7F301477F1C7D00B4FBF5F71D
:10092000076002E0124F076000BF00BF0F4F3F6833
:1009300007F0F0010909104F7A5C0768D74047605B
:100940000A4F3F6807F4E051890A0B4F7A5C476809
:10095000D7408760054F3F6807F46041490B064F59
:100960007A5C4768D740C760F0BD00000838024095
:100970000024F40000127A000000002070470000FC
:1009800030B500228B071C0F0F2303FA04F20B4B28
:100990008C1053F824309343084C8D1044F82530C4
:1009A00023468C1053F824308C07240F00FA04F4EB
:1009B0002343024C8D1044F8253030BD08380140E7
:1009C0000CB50020019000903448006840F480305D
:1009D0003249086000BF3148006800F400300090E0
:1009E0000198401C0190009818B90198B0F5A04FEB
:1009F000F1D12A48006800F4003010B101200090C5
:100A000001E0002000900098012846D123484030A2
:100A1000006840F08050214940310860204800685B
:100A200040F440401E4908601C48083000681B49DB
:100A3000083108600846006840F400400860084635
:100A4000006840F4A05008601648091F0860081F9D
:100A5000006840F08070091F086000BF0F48006800
:100A600000F000700028F9D040F205700E490860CF
:100A70000A480830006820F003000849083108607F
:100A80000846006840F00200086000BF03480830D4
:100A9000006800F00C000828F8D10CBD00380240B6
:100AA0000070004008544007003C0240042808D170
:100AB0004FF0E021096941F004014FF0E02211619B
:100AC00007E04FF0E021096921F004014FF0E02236
:100AD000116170477047000010B51548006840F478
:100AE0007000134908601348006840F00100114984
:100AF000086000200F49083108600E4800680E4960
:100B000008400C4908600D48091D0860081F00686E
:100B100020F48020091F0860002006490C3108607D
:100B2000FFF74EFF4FF0006001498039086010BDAB
:100B300088ED00E000380240FFFFF6FE1030002490
:100B400010B540F225511D4800F04AF810B31B487B
:100B500000F000F9C4B21A48008800F40040C8B997
:100B60001748008800F4804060B10A2C03D00020B0
:100B70001349088020E01248008840F400401049E2
:100B8000088019E00D2C06D10D48008840F4804003
:100B90000B49088010E00A480088C0F30D0009499D
:100BA0000C5407480088401C054908800846008806
:100BB000C72801DD0020088010BD000000100140A2
:100BC000180000201C00002021B1828942F400524C
:100BD000828104E082894DF6FF731A40828170475A
:100BE00070B50246002400230025002040F66A1656
:100BF000B14200D100BFC1F3421501F01F0301262D
:100C000006FA03F3012D02D19689334006E0022D46
:100C100002D1168A334001E0968A33400C12012635
:100C200006FA04F41688344013B10CB1012000E038
:100C3000002070BDF0B503460024002600250020EA
:100C400040F66A17B94200D100BF1846C1F34214FA
:100C500001F01F06012707FA06F5012C01D10C301F
:100C600004E0022C01D1103000E014301AB1076802
:100C70002F43076002E00768AF430760F0BD000044
:100C80002DE9FF4705460E460024A14600BFA046B9
:100C9000B08900B100BF2C8A24F44054F08804438A
:100CA0002C82AC8941F20C608443B08831890843BE
:100CB000718908430443AC81AC8A24F44074B08940
:100CC0000443AC826846FFF7E5FD2048854202D028
:100CD0001F48854202D1DDF80C9001E0DDF8089054
:100CE000A88900F4004040B109EBC90000EB0910ED
:100CF00031684900B0FBF1F707E009EBC90000EBF0
:100D0000091031688900B0FBF1F76420B7FBF0F0FF
:100D100004012009642101FB1078A88900F4004037
:100D200040B1322000EBC800B0FBF1F000F007004A
:100D3000044308E0322000EB08106421B0FBF1F01E
:100D400000F00F0004432C81BDE8FF870010014034
:100D50000014014001468888C0F30800704700BFB6
:100D6000FEE700000020014908607047082C0040A1
:100D700040F08001014A116070470000002C0040E3
:100D80000120014908607047A480054210B5FFF7B3
:100D9000E9FF0448006808B9012000E0002001498B
:100DA000086010BDA882424200F07F01014A116034
:100DB00070470000002C00400021044A126822F411
:100DC000C0710143014A116070470000042C0040CB
:100DD00008B5002100910749096821F07F010091C1
:100DE00000F07F01009A11430091024A00991160BE
:100DF00008BD0000042C0040F8B506460C46154618
:100E00000121C802FFF726FD124800783040114941
:100E100008702846FFF7D0FF2046FFF7D9FF0D489E
:100E20000078FFF7C1FF0B480078FFF7A1FF002013
:100E30008DF8000003208DF801008DF802000120DC
:100E40008DF803006846FFF7ADFCFFF78BFFFFF757
:100E500097FFF8BD1A000020014600BF7047000050
:100E600010B504466FF00400FFF720FEE11704EB15
:100E70005171C1F3C701074A11701046007800EBA9
:100E80004001C1EBC0104FF6FF7101EAC0000249FA
:100E9000088010BD100000201200002070B504462C
:100EA0004FF4077094FBF0F0C6B24FF4077094FB58
:100EB000F0F100FB114085B205E04FF4077000F03F
:100EC00009F8701EC6B2002EF7D115B1284600F001
:100ED00001F870BD0146114A12884A434FF0E023E1
:100EE0005A6100229A611A46126942F001021A619F
:100EF00000BF4FF0E022106900F001021AB100F4C7
:100F00008032002AF5D04FF0E022126922F001026F
:100F10004FF0E0231A6100229A617047120000200E
:100F200000BF054A128802F04002002AF9D0C2B27E
:100F3000014B9A8070470000001001404FF4A06000
:100F4000FFF76CFCA820FFF78BFF4FF4E13000F0B7
:100F500031F8FFF7DFFBFFF701FCFFF709FAFFF7B6
:100F6000E7FA0EA0FFF782F900200F4908604FF45E
:100F70009670FFF793FF4FF4C0725F217F20FFF759
:100F80003BFF09E001200849086008A0FFF76EF95F
:100F90004FF47A70FFF782FFF4E70000424F4F549E
:100FA000494E470D0A000000A48242424F4B0D0AF1
:100FB0000000000010B588B0044601210846FFF784
:100FC00039FC01211020FFF755FC07220921224896
:100FD000FFF761FB07220A211F48FFF75CFB4FF474
:100FE000C060069002208DF81C008DF81D000020C6
:100FF0008DF81E0001208DF81F0006A91648FFF786
:1010000002FB02940020ADF80C00ADF80E00ADF824
:101010001000ADF814000C20ADF8120002A90F4822
:10102000FFF72EFE01210D48FFF7CEFD012240F211
:1010300025510A48FFF7FEFD25208DF80400032006
:101040008DF805008DF8060001208DF8070001A835
:10105000FFF7A8FB08B010BD0000024000100140DF
:101060004FF04070E1EE100A704700008C1000084D
:10107000000000201C000000C4010008A8100008A7
:101080001C0000202C070000E00100080000000008
:10109000010203040102030406070809000000001E
:0810A0000000000000007F00C9
:040000050800018965
:00000001FF
