:020000040800F2
:100000003807002029020008B10600082106000870
:10001000AD060008110300082F0A000800000000C8
:10002000000000000000000000000000850700083C
:10003000150300080000000041070008DD08000863
:10004000430200084302000843020008430200087C
:100050004302000843020008190300084302000895
:100060004D03000881030008B5030008430200089F
:10007000430200084302000843020008430200084C
:10008000430200084302000843020008430200083C
:10009000430200084302000843020008430200082C
:1000A000430200084302000843020008430200081C
:1000B000430200084302000843020008430200080C
:1000C00043020008430200084302000843020008FC
:1000D00043020008490900084302000843020008DF
:1000E00043020008430200084302000843020008DC
:1000F00043020008430200084302000843020008CC
:1001000043020008430200084302000843020008BB
:1001100043020008430200084302000843020008AB
:10012000430200084302000843020008430200089B
:10013000430200084302000843020008430200088B
:10014000430200084302000843020008430200087B
:10015000430200084302000843020008430200086B
:10016000430200084302000843020008430200085B
:10017000430200084302000843020008430200084B
:10018000430200084302000800F002F800F03CF8C7
:100190000AA090E8000C82448344AAF10107DA45E2
:1001A00001D100F031F8AFF2090EBAE80F0013F0F8
:1001B000010F18BFFB1A43F0010318477409000030
:1001C00094090000103A24BF78C878C1FAD85207C1
:1001D00024BF30C830C144BF04680C6070470000C1
:1001E0000023002400250026103A28BF78C1FBD840
:1001F000520728BF30C148BF0B6070471FB500F0E1
:1002000091FC1FBD10B510BD00F033F81146FFF78B
:10021000F5FF00F071FC00F051F803B4FFF7F2FFB6
:1002200003BC00F006FC000009488047094800476D
:10023000FEE7FEE7FEE7FEE7FEE7FEE7FEE7FEE796
:10024000FEE7FEE704480549054A064B70470000F3
:10025000E108000889010008380100203807002063
:1002600038030020380300207047704770477047FC
:100270007047754600F028F8AE46050069465346BB
:1002800020F00700854618B020B5FFF7DBFFBDE87A
:1002900020404FF000064FF000074FF000084FF0ED
:1002A000000B21F00701AC46ACE8C009ACE8C0097E
:1002B000ACE8C009ACE8C0098D4670470446AFF30E
:1002C00000802046FFF7A9FF00487047D4000020B7
:1002D0001CB50121202000F035FA4FF48070009009
:1002E00001208DF8040000208DF8060002208DF812
:1002F000070003208DF805006946044800F03BF92B
:100300004FF48071014800F087F91CBD00140240D1
:1003100000BFFEE77047000010B50A2000F0AAFBFE
:100320000121084800F06FF9012807D1064800684C
:1003300008B9012000E0002003490860012000F016
:100340005FF810BD00000240A082424210B50A20B2
:1003500000F090FB0421084800F055F938B907482F
:10036000006808B9012000E000200449086004206A
:1003700000F046F810BD000000100240A482424286
:1003800010B50A2000F076FB0821084800F03BF980
:1003900038B90748006808B9012000E00020044986
:1003A0000860082000F02CF810BD0000001002408A
:1003B000A882424210B50A2000F05CFB10210D48D3
:1003C00000F021F988B90C48006808B9012000E064
:1003D0000020094908600948D0F8A80208B901209E
:1003E00000E000200449091D0860102000F008F812
:1003F00010BD000000100240A48242420080424230
:100400000149086070470000143C01400021234965
:100410008279002A3AD00A46126803689A430B464A
:100420001A600A1D126803689A430B1D1A6002794C
:1004300011440A6803681A430A60184A08321268AD
:1004400003689A43154B08331A601A1D1268036833
:100450009A43124B0C331A604279102A0ED11A1F9C
:10046000126803681A430D4B08331A601A1D12688C
:1004700003681A43094B0C331A600DE007494279AF
:1004800011440A6803681A430A6005E002791144BE
:100490000A6803689A430A6070470000003C014004
:1004A0000EB500F0BFF80121880300F05BF90021D0
:1004B000084600F069F90221042000F065F90321E3
:1004C000042000F061F90421084600F05DF90120E4
:1004D00001908DF80A0000208DF8080008208DF8A2
:1004E000090001A8FFF792FF1C20019001208DF860
:1004F0000A0000208DF808000C208DF8090001A8E2
:10050000FFF784FF06208DF8000003208DF801001E
:100510008DF8020001208DF80300684600F0CAF84B
:1005200008208DF8000003208DF801008DF80200EE
:1005300001208DF80300684600F0BCF809208DF812
:10054000000003208DF801008DF8020001208DF8D5
:100550000300684600F0AEF80A208DF80000032082
:100560008DF801008DF8020001208DF80300684627
:1005700000F0A0F80EBDF0B50A46002100230024CB
:1005800000BF3DE0012505FA01F3156805EA030403
:100590009C4234D105684F000326BE40B543056038
:1005A00015794E00B5400668354305601579012D73
:1005B00002D01579022D16D185684F000326BE4062
:1005C000B543856055794E00B540866835438560F2
:1005D000456801268E40B5434560456896798E4052
:1005E000B6B235434560C5684F000326BE40B543EB
:1005F000C560D5794E00B540C6683543C560491C15
:100600001029BFD3F0BD0246002013690B400BB187
:10061000012000E00020704741837047018370474C
:1006200000BFFEE71CB50121112000F08BF81C2053
:10063000009000208DF804008DF8060001208DF850
:10064000070003208DF8050069460648FFF793FF71
:100650000120009002208DF8070069460248FFF74C
:100660008AFF1CBD00100240000002401CB50121A1
:10067000202000F067F84FF4C060009001208DF852
:10068000040000208DF8060001208DF807000320EB
:100690008DF8050069460448FFF76DFF4FF4C0610F
:1006A0000148FFF7BBFF1CBD0014024000BFFEE77E
:1006B0007047000070B5002100230F22C4781CB3DE
:1006C000174C246804F4E064C4F5E064C4F3072123
:1006D000C1F10404E3B20A4144789C40E1B2847859
:1006E000144021430C07210E0E4C05786155047807
:1006F00004F01F050124AC4005786D11AD0005F133
:10070000E025C5F8004109E0047804F01F05012444
:10071000AC40054D0678761145F8264070BD0000C6
:100720000CED00E000E400E080E100E0024901435C
:10073000024A1160704700000000FA050CED00E06D
:100740007047000029B1064A12680243044B1A6040
:1007500004E0034A12688243014B1A6070470000AC
:100760003038024029B1064A12680243044B1A602D
:1007700004E0034A12688243014B1A60704700008C
:10078000443802407047000030B500228B071C0F30
:100790000F2303FA04F20B4B8C1053F824309343CD
:1007A000084C8D1044F8253023468C1053F8243023
:1007B0008C07240F00FA04F42343024C8D1044F8F4
:1007C000253030BD083801400CB500200190009064
:1007D0003448006840F480303249086000BF314836
:1007E000006800F4003000900198401C01900098CF
:1007F00018B90198B0F5A04FF1D12A48006800F46B
:10080000003010B10120009001E00020009000981D
:10081000012846D123484030006840F080502149EB
:10082000403108602048006840F440401E4908609C
:100830001C48083000681B490831086008460068F9
:1008400040F4004008600846006840F4A05008608A
:100850001648091F0860081F006840F08070091FD3
:10086000086000BF0F48006800F000700028F9D051
:1008700040F205700E4908600A480830006820F010
:1008800003000849083108600846006840F002008B
:10089000086000BF03480830006800F00C0008281A
:1008A000F8D10CBD003802400070004008544007E9
:1008B000003C0240042808D14FF0E021096941F0D2
:1008C00004014FF0E022116107E04FF0E0210969D7
:1008D00021F004014FF0E0221161704770470000E1
:1008E00010B51548006840F47000134908601348BB
:1008F000006840F001001149086000200F490831EC
:1009000008600E4800680E4908400C4908600D4810
:10091000091D0860081F006820F48020091F086076
:10092000002006490C310860FFF74EFF4FF00060D1
:1009300001498039086010BD88ED00E000380240B0
:10094000FFFFF6FE1030002410B540F225511D487F
:1009500000F03EF810B31B4800F064F8C4B21A4827
:10096000008800F40040C8B91748008800F48040AF
:1009700060B10A2C03D000201349088020E01248FF
:10098000008840F400401049088019E00D2C06D181
:100990000D48008840F480400B49088010E00A4868
:1009A0000088C0F30D0009490C5407480088401C1A
:1009B0000549088008460088C72801DD0020088016
:1009C00010BD000000100140080000200C000020B5
:1009D00070B50246002400230025002040F66A1668
:1009E000B14200D100BFC1F3421501F01F0301263F
:1009F00006FA03F3012D02D19689334006E0022D59
:100A000002D1168A334001E0968A33400C12012647
:100A100006FA04F41688344013B10CB1012000E04A
:100A2000002070BD01468888C0F30800704700BFF1
:100A3000FEE7014600BF704710B504466FF00400A2
:100A4000FFF738FFE11704EB5171C1F3C701074A03
:100A500011701046007800EB4001C1EBC0104FF65A
:100A6000FF7101EAC0000249088010BD00000020AB
:100A70000200002070B504464FF4077094FBF0F0BC
:100A8000C6B24FF4077094FBF0F100FB114085B241
:100A900005E04FF4077000F009F8701EC6B2002E92
:100AA000F7D115B1284600F001F870BD0146114A92
:100AB00012884A434FF0E0235A6100229A611A4695
:100AC000126942F001021A6100BF4FF0E022106982
:100AD00000F001021AB100F48032002AF5D04FF084
:100AE000E022126922F001024FF0E0231A61002295
:100AF0009A617047020000204FF4A060FFF716FED5
:100B0000A820FFF799FFFFF78DFDFFF7AFFDFFF777
:100B1000DFFBFFF7C5FC00200149086000BFFEE7CE
:100B2000A48242424FF04070E1EE100A704700008C
:100B3000500B0008000000200C000000C401000859
:100B40005C0B00080C0000202C070000E0010008EE
:0C0B500000000000000000000000000099
:040000050800018965
:00000001FF
