:020000040800F2
:100000003807002029020008C50400087D03000805
:10001000C1040008D10200085307000800000000D6
:10002000000000000000000000000000E9040008DB
:10003000D502000800000000C704000801060008FF
:10004000430200084302000843020008430200087C
:10005000430200084302000843020008430200086C
:10006000430200084302000843020008430200085C
:10007000430200084302000843020008430200084C
:10008000430200084302000843020008430200083C
:10009000430200084302000843020008430200082C
:1000A000430200084302000843020008430200081C
:1000B000430200084302000843020008430200080C
:1000C00043020008430200084302000843020008FC
:1000D000430200086D0600084302000843020008BE
:1000E00043020008430200084302000843020008DC
:1000F00043020008430200084302000843020008CC
:1001000043020008430200084302000843020008BB
:1001100043020008430200084302000843020008AB
:10012000430200084302000843020008430200089B
:10013000430200084302000843020008430200088B
:10014000430200084302000843020008430200087B
:10015000430200084302000843020008430200086B
:10016000430200084302000843020008430200085B
:10017000430200084302000843020008430200084B
:10018000430200084302000800F002F800F03CF8C7
:100190000AA090E8000C82448344AAF10107DA45E2
:1001A00001D100F031F8AFF2090EBAE80F0013F0F8
:1001B000010F18BFFB1A43F001031847FC060000AB
:1001C0001C070000103A24BF78C878C1FAD852073B
:1001D00024BF30C830C144BF04680C6070470000C1
:1001E0000023002400250026103A28BF78C1FBD840
:1001F000520728BF30C148BF0B6070471FB500F0E1
:1002000055FB1FBD10B510BD00F033F81146FFF7C8
:10021000F5FF00F003FB00F051F803B4FFF7F2FF25
:1002200003BC00F098FA00000948804709480047DD
:10023000FEE7FEE7FEE7FEE7FEE7FEE7FEE7FEE796
:10024000FEE7FEE704480549054A064B70470000F3
:100250000506000889010008380100203807002041
:1002600038030020380300207047704770477047FC
:100270007047754600F028F8AE46050069465346BB
:1002800020F00700854618B020B5FFF7DBFFBDE87A
:1002900020404FF000064FF000074FF000084FF0ED
:1002A000000B21F00701AC46ACE8C009ACE8C0097E
:1002B000ACE8C009ACE8C0098D4670470446AFF30E
:1002C00000802046FFF7A9FF00487047D4000020B7
:1002D00000BFFEE77047F0B50A4600210023002466
:1002E00000BF3DE0012505FA01F3156805EA0304A6
:1002F0009C4234D105684F000326BE40B5430560DB
:1003000015794E00B5400668354305601579012D15
:1003100002D01579022D16D185684F000326BE4004
:10032000B543856055794E00B54086683543856094
:10033000456801268E40B5434560456896798E40F4
:10034000B6B235434560C5684F000326BE40B5438D
:10035000C560D5794E00B540C6683543C560491CB7
:100360001029BFD3F0BD0246002013690B400BB12A
:10037000012000E0002070470183704700BFFEE7C6
:100380001CB50121062000F09FF84FF4407000904A
:1003900000208DF804008DF8060001208DF807007C
:1003A00003208DF8050069460648FFF794FF4FF4D7
:1003B0000070009002208DF8070069460248FFF7A0
:1003C0008AFF1CBD000802400004024010B504462C
:1003D00014B10120274908702648007888B34FF4EB
:1003E00080712548FFF7BFFF60B14FF400712248CC
:1003F000FFF7B9FF30B14FF400712048FFF7B3FFAA
:1004000001281FD10A2000F0C7F9002019490870FF
:100410004FF480711848FFF7A6FF08B9012010BDFE
:100420004FF400711448FFF79EFF08B90220F6E769
:100430004FF400711148FFF796FF012817D10320F0
:10044000EDE7FFE74FF480710B48FFF78CFF0128C1
:100450000DD141020848FFF786FF012807D141026C
:100460000648FFF780FF10B90120024908700020FC
:10047000D5E700000A000020000802400004024006
:100480001CB50121022000F01FF84FF440500090ED
:1004900001208DF8040000208DF8060002208DF860
:1004A000070003208DF8050069460448FFF713FF95
:1004B0004FF440510148FFF75FFF1CBD00040240AC
:1004C00000BFFEE77047704729B1064A1268024331
:1004D000044B1A6004E0034A12688243014B1A601D
:1004E0007047000030380240704700000CB5002013
:1004F000019000903448006840F480303249086030
:1005000000BF3148006800F4003000900198401CA2
:100510000190009818B90198B0F5A04FF1D12A4880
:10052000006800F4003010B10120009001E00020CC
:1005300000900098012846D123484030006840F0E0
:1005400080502149403108602048006840F4404014
:100550001E4908601C48083000681B4908310860C3
:100560000846006840F4004008600846006840F40F
:10057000A05008601648091F0860081F006840F076
:100580008070091F086000BF0F48006800F000700D
:100590000028F9D040F205700E4908600A4808307A
:1005A000006820F003000849083108600846006828
:1005B00040F00200086000BF03480830006800F007
:1005C0000C000828F8D10CBD003802400070004033
:1005D00008544007003C0240042808D14FF0E021B5
:1005E000096941F004014FF0E022116107E04FF08A
:1005F000E021096921F004014FF0E0221161704708
:100600007047000010B51548006840F470001349A9
:1006100008601348006840F001001149086000209C
:100620000F49083108600E4800680E4908400C491F
:1006300008600D48091D0860081F006820F480202C
:10064000091F0860002006490C310860FFF74EFFC3
:100650004FF0006001498039086010BD88ED00E06E
:1006600000380240FFFFF6FE1030002410B540F2C3
:1006700025511D4800F03EF810B31B4800F064F807
:10068000C4B21A48008800F40040C8B9174800886E
:1006900000F4804060B10A2C03D000201349088088
:1006A00020E01248008840F400401049088019E01A
:1006B0000D2C06D10D48008840F480400B4908807D
:1006C00010E00A480088C0F30D0009490C5407489F
:1006D0000088401C0549088008460088C72801DDBD
:1006E0000020088010BD000000100140080000201C
:1006F0000C00002070B502460024002300250020D5
:1007000040F66A16B14200D100BFC1F3421501F0B4
:100710001F03012606FA03F3012D02D19689334007
:1007200006E0022D02D1168A334001E0968A33405A
:100730000C12012606FA04F41688344013B10CB1E9
:10074000012000E0002070BD01468888C0F3080049
:10075000704700BFFEE7014600BF704710B5044672
:100760006FF00400FFF738FFE11704EB5171C1F39C
:10077000C701074A11701046007800EB4001C1EB39
:10078000C0104FF6FF7101EAC0000249088010BD99
:10079000000000200200002070B504464FF40770EE
:1007A00094FBF0F0C6B24FF4077094FBF0F100FB3D
:1007B000114085B205E04FF4077000F009F8701E93
:1007C000C6B2002EF7D115B1284600F001F870BD71
:1007D0000146114A12884A434FF0E0235A61002231
:1007E0009A611A46126942F001021A6100BF4FF085
:1007F000E022106900F001021AB100F48032002AF0
:10080000F5D04FF0E022126922F001024FF0E02310
:100810001A6100229A61704702000020A820FFF7A9
:100820009DFFFFF7ADFDFFF72BFE00201D4908607F
:1008300037E00020FFF7CAFD044674B3012C04D052
:10084000022C0BD0032C27D113E01648006808B9FE
:10085000012000E00020134908601DE01148001D40
:10086000006808B9012000E000200E49091D086059
:1008700012E00C48006808B9012000E00020094996
:1008800008600948D0F8B40208B9012000E000204F
:100890000449091D086000BF03E0FFE70A20FFF7D5
:1008A0007BFFC6E7B0824042008040424FF040707C
:1008B000E1EE100A70470000D80800080000002090
:1008C0000C000000C4010008E40800080C0000202F
:1008D0002C070000E00100080000000000000000FC
:0408E0000000010013
:040000050800018965
:00000001FF
