:020000040800F2
:10000000380700202902000809050008A904000893
:1000100005050008D1020008FF09000800000000E3
:10002000000000000000000000000000650500085E
:10003000D502000800000000210500087D06000828
:10004000110A0008430200084302000843020008A6
:100050004302000843020008D902000843020008D6
:10006000FD02000831030008650300084302000890
:10007000430200084302000843020008430200084C
:10008000430200084302000843020008430200083C
:10009000430200084302000843020008430200082C
:1000A000430200084302000843020008430200081C
:1000B00043020008890700084302000843020008C1
:1000C00043020008430200084302000843020008FC
:1000D000430200081909000843020008430200080F
:1000E00043020008430200084302000843020008DC
:1000F00043020008430200084302000843020008CC
:1001000043020008430200084302000843020008BB
:1001100043020008430200084302000843020008AB
:10012000430200084302000843020008430200089B
:10013000430200084302000843020008430200088B
:10014000430200084302000843020008430200087B
:10015000430200084302000843020008430200086B
:10016000430200084302000843020008430200085B
:10017000430200084302000843020008430200084B
:10018000430200084302000800F002F800F03CF8C7
:100190000AA090E8000C82448344AAF10107DA45E2
:1001A00001D100F031F8AFF2090EBAE80F0013F0F8
:1001B000010F18BFFB1A43F001031847B0090000F4
:1001C000D0090000103A24BF78C878C1FAD8520785
:1001D00024BF30C830C144BF04680C6070470000C1
:1001E0000023002400250026103A28BF78C1FBD840
:1001F000520728BF30C148BF0B6070471FB500F0E1
:10020000AFFC1FBD10B510BD00F033F81146FFF76D
:10021000F5FF00F07DFC00F051F803B4FFF7F2FFAA
:1002200003BC00F011FC0000094880470948004762
:10023000FEE7FEE7FEE7FEE7FEE7FEE7FEE7FEE796
:10024000FEE7FEE704480549054A064B70470000F3
:1002500081060008890100083801002038070020C5
:1002600038030020380300207047704770477047FC
:100270007047754600F028F8AE46050069465346BB
:1002800020F00700854618B020B5FFF7DBFFBDE87A
:1002900020404FF000064FF000074FF000084FF0ED
:1002A000000B21F00701AC46ACE8C009ACE8C0097E
:1002B000ACE8C009ACE8C0098D4670470446AFF30E
:1002C00000802046FFF7A9FF00487047D4000020B7
:1002D00000BFFEE77047000010B50A2000F0D6FB13
:1002E0000121054800F0D5F8012801D100F0DEF821
:1002F000012000F05DF810BD0000024010B50A209A
:1003000000F0C4FB0421084800F0C3F838B90748DE
:10031000006808B9012000E00020044908600420BA
:1003200000F046F810BD000000100240A4824242D6
:1003300010B50A2000F0AAFB0821084800F0A9F82F
:1003400038B90748006808B9012000E000200449D6
:100350000860082000F02CF810BD000000100240DA
:10036000A882424210B50A2000F090FB10210D48EF
:1003700000F08FF888B90C48006808B9012000E047
:100380000020094908600948D0F8A80208B90120EE
:1003900000E000200449091D0860102000F008F862
:1003A00010BD000000100240A48242420080424280
:1003B0000149086070470000143C0140F0B50A464E
:1003C00000210023002400BF3DE0012505FA01F3D0
:1003D000156805EA03049C4234D105684F000326E2
:1003E000BE40B543056015794E00B54006683543FB
:1003F00005601579012D02D01579022D16D1856879
:100400004F000326BE40B543856055794E00B54088
:10041000866835438560456801268E40B543456052
:10042000456896798E40B6B235434560C5684F0041
:100430000326BE40B543C560D5794E00B540C668B9
:100440003543C560491C1029BFD3F0BDF0B500236A
:1004500000244D07ED0E02FA05F3CE1000F1200541
:1004600055F826504E07F70E0F26BE40B543CF1065
:1004700000F1200646F82750CE1000F1200555F86F
:10048000265045EA0304CE1000F1200545F8264029
:10049000F0BD0246002013690B400BB1012000E0C3
:1004A000002070470183704700BFFEE710B500F0E1
:1004B00001F810BD4AF6AA20014908607047000003
:1004C000003000401CB50121202000F02BF84FF433
:1004D000C060009001208DF8040000208DF8060017
:1004E00001208DF8070003208DF8050069460448B7
:1004F000FFF764FF4FF4C0610148FFF7D3FF1CBD55
:100500000014024000BFFEE77047000002490143AB
:10051000024A1160704700000000FA050CED00E08F
:100520007047000029B1064A12680243044B1A6062
:1005300004E0034A12688243014B1A6070470000CE
:100540003038024029B1064A12680243044B1A604F
:1005500004E0034A12688243014B1A6070470000AE
:1005600040380240704700000CB500200190009018
:100570003448006840F480303249086000BF314898
:10058000006800F4003000900198401C0190009831
:1005900018B90198B0F5A04FF1D12A48006800F4CD
:1005A000003010B10120009001E000200090009880
:1005B000012846D123484030006840F0805021494E
:1005C000403108602048006840F440401E490860FF
:1005D0001C48083000681B4908310860084600685C
:1005E00040F4004008600846006840F4A0500860ED
:1005F0001648091F0860081F006840F08070091F36
:10060000086000BF0F48006800F000700028F9D0B3
:1006100040F205700E4908600A480830006820F072
:1006200003000849083108600846006840F00200ED
:10063000086000BF03480830006800F00C0008287C
:10064000F8D10CBD0038024000700040085440074B
:10065000003C0240042808D14FF0E021096941F034
:1006600004014FF0E022116107E04FF0E021096939
:1006700021F004014FF0E022116170477047000043
:1006800010B51548006840F470001349086013481D
:10069000006840F001001149086000200F4908314E
:1006A00008600E4800680E4908400C4908600D4873
:1006B000091D0860081F006820F48020091F0860D9
:1006C000002006490C310860FFF74EFF4FF0006034
:1006D00001498039086010BD88ED00E00038024013
:1006E000FFFFF6FE1030002430B58BB005460C46F7
:1006F00001212020FFF716FF01210802FFF722FF4A
:100700004FF40070099002208DF8280000208DF829
:100710002A0001208DF82B0003208DF8290009A95B
:100720001748FFF74BFE092211461548FFF78EFECA
:100730000020ADF82000ADF81A000795A0B2ADF882
:10074000180006A90F4800F0A5F86020ADF80400D5
:100750000220ADF810000120ADF8060001A90948FB
:1007600000F04EF80821074800F088F801210548FC
:1007700000F022F80121034800F02DF80BB030BD45
:10078000001402400020004010B50121084800F08C
:100790002EF8012807D10748006808B9012000E0B9
:1007A0000020044908600121014800F011F810BD43
:1007B00000040040A882424221B1028842F0800237
:1007C000028004E002884FF67F731A40028070476F
:1007D000CA430282704721B1028842F001020280BE
:1007E00004E002884FF6FE731A400280704702460A
:1007F0000020138A0B400BB1012000E0002070475D
:1008000070B5002400220023058C4FF6FE7635409B
:100810000584028C8388048B4FF68F752C40B51E9F
:100820002C400D882C43751E2A408D892A434D8803
:100830002A43104DA84202D00F4DA84213D14FF6C3
:10084000F7752A40CD892A434FF6FB752A408D88DB
:100850002A434FF6FF652B404FF6FF552B400D8A7C
:100860002B434D8A2B43838004838D684563028428
:1008700070BD000000000140000401400A46002154
:10088000018B4FF6F77319401143018370474163A1
:100890007047000000220288184B98420ED0184B77
:1008A00098420BD0B0F1804F08D0164B984205D03B
:1008B000154B984202D0154B984204D14FF68F73D6
:1008C0001A404B881A43124B984207D0114B98425A
:1008D00004D04FF6FF431A400B891A4302804B683D
:1008E000C3620B880385054B984202D0044B9842A3
:1008F00001D18B7A03860123838270470000014077
:10090000000401400004004000080040000C0040CA
:10091000001000400014004010B540F225511D4861
:1009200000F03EF810B31B4800F064F8C4B21A4857
:10093000008800F40040C8B91748008800F48040DF
:1009400060B10A2C03D000201349088020E012482F
:10095000008840F400401049088019E00D2C06D1B1
:100960000D48008840F480400B49088010E00A4898
:100970000088C0F30D0009490C5407480088401C4A
:100980000549088008460088C72801DD0020088046
:1009900010BD000000100140080000200C000020E5
:1009A00070B50246002400230025002040F66A1698
:1009B000B14200D100BFC1F3421501F01F0301266F
:1009C00006FA03F3012D02D19689334006E0022D89
:1009D00002D1168A334001E0968A33400C12012678
:1009E00006FA04F41688344013B10CB1012000E07B
:1009F000002070BD01468888C0F30800704700BF22
:100A0000FEE700000020014908607047082C004004
:100A100010B50748007800F00FF8FFF7F3FF05481E
:100A2000006808B9012000E000200249086010BDFC
:100A30000A000020A882424200F07F01014A1160B2
:100A400070470000002C0040014600BF70470000C6
:100A500010B504466FF00400FFF7FCFDE11704EB4E
:100A60005171C1F3C701074A11701046007800EBBD
:100A70004001C1EBC0104FF6FF7101EAC00002490E
:100A8000088010BD000000200200002070B5044660
:100A90004FF4077094FBF0F0C6B24FF4077094FB6C
:100AA000F0F100FB114085B205E04FF4077000F053
:100AB00009F8701EC6B2002EF7D115B1284600F015
:100AC00001F870BD0146114A12884A434FF0E023F5
:100AD0005A6100229A611A46126942F001021A61B3
:100AE00000BF4FF0E022106900F001021AB100F4DB
:100AF0008032002AF5D04FF0E022126922F0010284
:100B00004FF0E0231A6100229A6170470200002032
:100B1000002401254FF4A060FFF7F8FCA820FFF7A0
:100B200097FFFFF7CFFC532140F2F310FFF7DCFDF6
:100B300012E00320FFF7AAFF15B1601C84B201E0A8
:100B4000601E84B2B4F5967F00DD002504B901254E
:100B500021460248FFF79BFEEBE700000020004023
:100B60004FF04070E1EE100A704700008C0B000857
:100B7000000000200C000000C4010008980B0008D1
:100B80000C0000202C070000E0010008000000001D
:080B90000000000000007F00DE
:040000050800018965
:00000001FF
